{
  "_format": "hh-sol-artifact-1",
  "contractName": "BridgeEthImport",
  "sourceName": "contracts/ServiceManagerEth.sol",
  "abi": [
    {
      "inputs": [
        {
          "internalType": "address",
          "name": "from",
          "type": "address"
        },
        {
          "internalType": "address",
          "name": "to",
          "type": "address"
        },
        {
          "internalType": "uint256",
          "name": "amount",
          "type": "uint256"
        },
        {
          "internalType": "uint256",
          "name": "otherChainNonce",
          "type": "uint256"
        },
        {
          "internalType": "bytes",
          "name": "signature",
          "type": "bytes"
        }
      ],
      "name": "mint",
      "outputs": [],
      "stateMutability": "nonpayable",
      "type": "function"
    }
  ],
  "bytecode": "0x608060405234801561001057600080fd5b506101fa806100206000396000f3fe608060405234801561001057600080fd5b506004361061002b5760003560e01c80635255570214610030575b600080fd5b61004a600480360381019061004591906100c8565b61004c565b005b505050505050565b60008135905061006381610196565b92915050565b60008083601f84011261007b57600080fd5b8235905067ffffffffffffffff81111561009457600080fd5b6020830191508360018202830111156100ac57600080fd5b9250929050565b6000813590506100c2816101ad565b92915050565b60008060008060008060a087890312156100e157600080fd5b60006100ef89828a01610054565b965050602061010089828a01610054565b955050604061011189828a016100b3565b945050606061012289828a016100b3565b935050608087013567ffffffffffffffff81111561013f57600080fd5b61014b89828a01610069565b92509250509295509295509295565b60006101658261016c565b9050919050565b600073ffffffffffffffffffffffffffffffffffffffff82169050919050565b6000819050919050565b61019f8161015a565b81146101aa57600080fd5b50565b6101b68161018c565b81146101c157600080fd5b5056fea26469706673582212206465db5b9c73cdbd8d1f443b324046c8f86b1e8fcb02efceaef3cacf8190157764736f6c63430008000033",
  "linkReferences": {},
  "deployedLinkReferences": {}
}