{
  "_format": "hh-sol-artifact-1",
  "contractName": "ServiceManagerEth",
  "sourceName": "contracts/ServiceManagerEth.sol",
  "abi": [
    {
      "inputs": [
        {
          "internalType": "address",
          "name": "_Eth",
          "type": "address"
        }
      ],
      "stateMutability": "nonpayable",
      "type": "constructor"
    },
    {
      "inputs": [
        {
          "internalType": "address",
          "name": "from",
          "type": "address"
        },
        {
          "internalType": "address",
          "name": "to",
          "type": "address"
        },
        {
          "internalType": "uint256",
          "name": "amount",
          "type": "uint256"
        },
        {
          "internalType": "uint256",
          "name": "nonce",
          "type": "uint256"
        },
        {
          "internalType": "bytes",
          "name": "signature",
          "type": "bytes"
        }
      ],
      "name": "recieved",
      "outputs": [],
      "stateMutability": "nonpayable",
      "type": "function"
    }
  ],
  "bytecode": "0x6080604052600260015534801561001557600080fd5b506040516105a13803806105a183398181016040528101906100379190610092565b806000806101000a81548173ffffffffffffffffffffffffffffffffffffffff021916908373ffffffffffffffffffffffffffffffffffffffff16021790555050610104565b60008151905061008c816100ed565b92915050565b6000602082840312156100a457600080fd5b60006100b28482850161007d565b91505092915050565b60006100c6826100cd565b9050919050565b600073ffffffffffffffffffffffffffffffffffffffff82169050919050565b6100f6816100bb565b811461010157600080fd5b50565b61048e806101136000396000f3fe608060405234801561001057600080fd5b506004361061002b5760003560e01c80635a6da45714610030575b600080fd5b61004a6004803603810190610045919061020c565b61004c565b005b6003600081548092919061005f906103a1565b9190505550600354600260008873ffffffffffffffffffffffffffffffffffffffff1673ffffffffffffffffffffffffffffffffffffffff168152602001908152602001600020819055506001600260008873ffffffffffffffffffffffffffffffffffffffff1673ffffffffffffffffffffffffffffffffffffffff1681526020019081526020016000205411156101905760008054906101000a900473ffffffffffffffffffffffffffffffffffffffff1673ffffffffffffffffffffffffffffffffffffffff1663525557028787878787876040518763ffffffff1660e01b8152600401610155969594939291906102e9565b600060405180830381600087803b15801561016f57600080fd5b505af1158015610183573d6000803e3d6000fd5b5050505060006003819055505b505050505050565b6000813590506101a78161042a565b92915050565b60008083601f8401126101bf57600080fd5b8235905067ffffffffffffffff8111156101d857600080fd5b6020830191508360018202830111156101f057600080fd5b9250929050565b60008135905061020681610441565b92915050565b60008060008060008060a0878903121561022557600080fd5b600061023389828a01610198565b965050602061024489828a01610198565b955050604061025589828a016101f7565b945050606061026689828a016101f7565b935050608087013567ffffffffffffffff81111561028357600080fd5b61028f89828a016101ad565b92509250509295509295509295565b6102a781610356565b82525050565b60006102b98385610345565b93506102c6838584610392565b6102cf83610419565b840190509392505050565b6102e381610388565b82525050565b600060a0820190506102fe600083018961029e565b61030b602083018861029e565b61031860408301876102da565b61032560608301866102da565b81810360808301526103388184866102ad565b9050979650505050505050565b600082825260208201905092915050565b600061036182610368565b9050919050565b600073ffffffffffffffffffffffffffffffffffffffff82169050919050565b6000819050919050565b82818337600083830152505050565b60006103ac82610388565b91507fffffffffffffffffffffffffffffffffffffffffffffffffffffffffffffffff8214156103df576103de6103ea565b5b600182019050919050565b7f4e487b7100000000000000000000000000000000000000000000000000000000600052601160045260246000fd5b6000601f19601f8301169050919050565b61043381610356565b811461043e57600080fd5b50565b61044a81610388565b811461045557600080fd5b5056fea264697066735822122068fb4d92ec9d2f3d470c23ce3031f4685245c35773f2adbc4623ea8dab71a8c864736f6c63430008000033",
  "linkReferences": {},
  "deployedLinkReferences": {}
}