{
  "_format": "hh-sol-artifact-1",
  "contractName": "BridgeEth",
  "sourceName": "contracts/BridgeEth.sol",
  "abi": [
    {
      "inputs": [
        {
          "internalType": "uint256",
          "name": "_Supply",
          "type": "uint256"
        }
      ],
      "stateMutability": "nonpayable",
      "type": "constructor"
    },
    {
      "anonymous": false,
      "inputs": [
        {
          "indexed": false,
          "internalType": "address",
          "name": "from",
          "type": "address"
        },
        {
          "indexed": false,
          "internalType": "address",
          "name": "to",
          "type": "address"
        },
        {
          "indexed": false,
          "internalType": "uint256",
          "name": "amount",
          "type": "uint256"
        },
        {
          "indexed": false,
          "internalType": "uint256",
          "name": "date",
          "type": "uint256"
        },
        {
          "indexed": false,
          "internalType": "uint256",
          "name": "nonce",
          "type": "uint256"
        },
        {
          "indexed": false,
          "internalType": "bytes",
          "name": "signature",
          "type": "bytes"
        }
      ],
      "name": "TransferBurnEth",
      "type": "event"
    },
    {
      "anonymous": false,
      "inputs": [
        {
          "indexed": false,
          "internalType": "address",
          "name": "from",
          "type": "address"
        },
        {
          "indexed": false,
          "internalType": "address",
          "name": "to",
          "type": "address"
        },
        {
          "indexed": false,
          "internalType": "uint256",
          "name": "amount",
          "type": "uint256"
        },
        {
          "indexed": false,
          "internalType": "uint256",
          "name": "date",
          "type": "uint256"
        },
        {
          "indexed": false,
          "internalType": "uint256",
          "name": "nonce",
          "type": "uint256"
        },
        {
          "indexed": false,
          "internalType": "bytes",
          "name": "signature",
          "type": "bytes"
        }
      ],
      "name": "TransferMintEth",
      "type": "event"
    },
    {
      "inputs": [
        {
          "internalType": "address",
          "name": "",
          "type": "address"
        }
      ],
      "name": "ServiceCount",
      "outputs": [
        {
          "internalType": "uint256",
          "name": "",
          "type": "uint256"
        }
      ],
      "stateMutability": "view",
      "type": "function"
    },
    {
      "inputs": [
        {
          "internalType": "address",
          "name": "",
          "type": "address"
        }
      ],
      "name": "balances",
      "outputs": [
        {
          "internalType": "uint256",
          "name": "",
          "type": "uint256"
        }
      ],
      "stateMutability": "view",
      "type": "function"
    },
    {
      "inputs": [
        {
          "internalType": "address",
          "name": "to",
          "type": "address"
        },
        {
          "internalType": "uint256",
          "name": "amount",
          "type": "uint256"
        },
        {
          "internalType": "bytes",
          "name": "signature",
          "type": "bytes"
        }
      ],
      "name": "burn",
      "outputs": [],
      "stateMutability": "nonpayable",
      "type": "function"
    },
    {
      "inputs": [
        {
          "internalType": "address",
          "name": "_address",
          "type": "address"
        }
      ],
      "name": "getBalance",
      "outputs": [
        {
          "internalType": "uint256",
          "name": "",
          "type": "uint256"
        }
      ],
      "stateMutability": "view",
      "type": "function"
    },
    {
      "inputs": [],
      "name": "nonce",
      "outputs": [
        {
          "internalType": "uint256",
          "name": "",
          "type": "uint256"
        }
      ],
      "stateMutability": "view",
      "type": "function"
    },
    {
      "inputs": [],
      "name": "owner",
      "outputs": [
        {
          "internalType": "address",
          "name": "",
          "type": "address"
        }
      ],
      "stateMutability": "view",
      "type": "function"
    },
    {
      "inputs": [
        {
          "internalType": "address",
          "name": "",
          "type": "address"
        },
        {
          "internalType": "uint256",
          "name": "",
          "type": "uint256"
        }
      ],
      "name": "processedNonces",
      "outputs": [
        {
          "internalType": "bool",
          "name": "",
          "type": "bool"
        }
      ],
      "stateMutability": "view",
      "type": "function"
    },
    {
      "inputs": [
        {
          "internalType": "address",
          "name": "from",
          "type": "address"
        },
        {
          "internalType": "address",
          "name": "to",
          "type": "address"
        },
        {
          "internalType": "uint256",
          "name": "amount",
          "type": "uint256"
        },
        {
          "internalType": "uint256",
          "name": "comingnonce",
          "type": "uint256"
        },
        {
          "internalType": "bytes",
          "name": "signature",
          "type": "bytes"
        }
      ],
      "name": "recieved",
      "outputs": [],
      "stateMutability": "nonpayable",
      "type": "function"
    },
    {
      "inputs": [
        {
          "internalType": "address",
          "name": "to",
          "type": "address"
        },
        {
          "internalType": "uint256",
          "name": "amount",
          "type": "uint256"
        }
      ],
      "name": "transfer",
      "outputs": [],
      "stateMutability": "payable",
      "type": "function"
    }
  ],
  "bytecode": "0x6080604052600060085560046009553480156200001b57600080fd5b50604051620013a5380380620013a5833981810160405281019062000041919062000259565b6040518060400160405280600881526020017f457468546f6b656e000000000000000000000000000000000000000000000000815250600190805190602001906200008e92919062000192565b506040518060400160405280600381526020017f455448000000000000000000000000000000000000000000000000000000000081525060029080519060200190620000dc92919062000192565b5080600381905550336000806101000a81548173ffffffffffffffffffffffffffffffffffffffff021916908373ffffffffffffffffffffffffffffffffffffffff160217905550600354600660008060009054906101000a900473ffffffffffffffffffffffffffffffffffffffff1673ffffffffffffffffffffffffffffffffffffffff1673ffffffffffffffffffffffffffffffffffffffff16815260200190815260200160002081905550506200030e565b828054620001a0906200028f565b90600052602060002090601f016020900481019282620001c4576000855562000210565b82601f10620001df57805160ff191683800117855562000210565b8280016001018555821562000210579182015b828111156200020f578251825591602001919060010190620001f2565b5b5090506200021f919062000223565b5090565b5b808211156200023e57600081600090555060010162000224565b5090565b6000815190506200025381620002f4565b92915050565b6000602082840312156200026c57600080fd5b60006200027c8482850162000242565b91505092915050565b6000819050919050565b60006002820490506001821680620002a857607f821691505b60208210811415620002bf57620002be620002c5565b5b50919050565b7f4e487b7100000000000000000000000000000000000000000000000000000000600052602260045260246000fd5b620002ff8162000285565b81146200030b57600080fd5b50565b611087806200031e6000396000f3fe6080604052600436106100865760003560e01c8063851102ef11610059578063851102ef146101575780638da5cb5b14610194578063a9059cbb146101bf578063affed0e0146101db578063f8b2cb4f1461020657610086565b806327e235e31461008b57806344d17187146100c85780635a6da457146100f15780637cc702401461011a575b600080fd5b34801561009757600080fd5b506100b260048036038101906100ad919061094d565b610243565b6040516100bf9190610db5565b60405180910390f35b3480156100d457600080fd5b506100ef60048036038101906100ea9190610a44565b61025b565b005b3480156100fd57600080fd5b5061011860048036038101906101139190610976565b610314565b005b34801561012657600080fd5b50610141600480360381019061013c9190610a08565b6103e6565b60405161014e9190610d15565b60405180910390f35b34801561016357600080fd5b5061017e6004803603810190610179919061094d565b610415565b60405161018b9190610db5565b60405180910390f35b3480156101a057600080fd5b506101a961042d565b6040516101b69190610c90565b60405180910390f35b6101d960048036038101906101d49190610a08565b610451565b005b3480156101e757600080fd5b506101f0610501565b6040516101fd9190610db5565b60405180910390f35b34801561021257600080fd5b5061022d6004803603810190610228919061094d565b610507565b60405161023a9190610db5565b60405180910390f35b60066020528060005260406000206000915090505481565b82600660003373ffffffffffffffffffffffffffffffffffffffff1673ffffffffffffffffffffffffffffffffffffffff16815260200190815260200160002060008282546102aa9190610e84565b925050819055507f7e2cc89a0c363d3d35ddbe396e9654b86e286453c46b8a80494cb5234979b9233385854260045487876040516102ee9796959493929190610cab565b60405180910390a16004600081548092919061030990610f26565b919050555050505050565b6008600081548092919061032790610f26565b9190505550600854600760008873ffffffffffffffffffffffffffffffffffffffff1673ffffffffffffffffffffffffffffffffffffffff1681526020019081526020016000208190555060026009546103819190610e53565b600760008873ffffffffffffffffffffffffffffffffffffffff1673ffffffffffffffffffffffffffffffffffffffff1681526020019081526020016000205411156103de576103d5868686868686610550565b60006008819055505b505050505050565b60056020528160005260406000206020528060005260406000206000915091509054906101000a900460ff1681565b60076020528060005260406000206000915090505481565b60008054906101000a900473ffffffffffffffffffffffffffffffffffffffff1681565b80600660003373ffffffffffffffffffffffffffffffffffffffff1673ffffffffffffffffffffffffffffffffffffffff16815260200190815260200160002060008282546104a09190610e84565b9250508190555080600660008473ffffffffffffffffffffffffffffffffffffffff1673ffffffffffffffffffffffffffffffffffffffff16815260200190815260200160002060008282546104f69190610dfd565b925050819055505050565b60045481565b6000600660008373ffffffffffffffffffffffffffffffffffffffff1673ffffffffffffffffffffffffffffffffffffffff168152602001908152602001600020549050919050565b600061058587878760405160200161056a93929190610c2d565b604051602081830303815290604052805190602001206107f1565b90508673ffffffffffffffffffffffffffffffffffffffff166105ec8285858080601f016020809104026020016040519081016040528093929190818152602001838380828437600081840152601f19601f82011690508083019250505050505050610821565b73ffffffffffffffffffffffffffffffffffffffff1614610642576040517f08c379a000000000000000000000000000000000000000000000000000000000815260040161063990610d95565b60405180910390fd5b60001515600560008973ffffffffffffffffffffffffffffffffffffffff1673ffffffffffffffffffffffffffffffffffffffff168152602001908152602001600020600086815260200190815260200160002060009054906101000a900460ff161515146106e6576040517f08c379a00000000000000000000000000000000000000000000000000000000081526004016106dd90610d75565b60405180910390fd5b6001600560008973ffffffffffffffffffffffffffffffffffffffff1673ffffffffffffffffffffffffffffffffffffffff168152602001908152602001600020600086815260200190815260200160002060006101000a81548160ff02191690831515021790555084600660008873ffffffffffffffffffffffffffffffffffffffff1673ffffffffffffffffffffffffffffffffffffffff168152602001908152602001600020600082825461079e9190610dfd565b925050819055507f89148a40a027db299599f2c9a55afdecd49a7817c6229a9509fd24bc90652e15878787428888886040516107e09796959493929190610cab565b60405180910390a150505050505050565b6000816040516020016108049190610c6a565b604051602081830303815290604052805190602001209050919050565b60008060008061083085610896565b8093508194508295505050506001868484846040516000815260200160405260405161085f9493929190610d30565b6020604051602081039080840390855afa158015610881573d6000803e3d6000fd5b50505060206040510351935050505092915050565b600080600060418451146108a957600080fd5b60008060006020870151925060408701519150606087015160001a90508083839550955095505050509193909250565b6000813590506108e881611023565b92915050565b60008083601f84011261090057600080fd5b8235905067ffffffffffffffff81111561091957600080fd5b60208301915083600182028301111561093157600080fd5b9250929050565b6000813590506109478161103a565b92915050565b60006020828403121561095f57600080fd5b600061096d848285016108d9565b91505092915050565b60008060008060008060a0878903121561098f57600080fd5b600061099d89828a016108d9565b96505060206109ae89828a016108d9565b95505060406109bf89828a01610938565b94505060606109d089828a01610938565b935050608087013567ffffffffffffffff8111156109ed57600080fd5b6109f989828a016108ee565b92509250509295509295509295565b60008060408385031215610a1b57600080fd5b6000610a29858286016108d9565b9250506020610a3a85828601610938565b9150509250929050565b60008060008060608587031215610a5a57600080fd5b6000610a68878288016108d9565b9450506020610a7987828801610938565b935050604085013567ffffffffffffffff811115610a9657600080fd5b610aa2878288016108ee565b925092505092959194509250565b610ab981610eb8565b82525050565b610ad0610acb82610eb8565b610f6f565b82525050565b610adf81610eca565b82525050565b610aee81610ed6565b82525050565b610b05610b0082610ed6565b610f81565b82525050565b6000610b178385610dd0565b9350610b24838584610f17565b610b2d83611005565b840190509392505050565b6000610b45601c83610df2565b91507f19457468657265756d205369676e6564204d6573736167653a0a3332000000006000830152601c82019050919050565b6000610b85601a83610de1565b91507f7472616e7366657220616c72656164792070726f6365737365640000000000006000830152602082019050919050565b6000610bc5600f83610de1565b91507f77726f6e67207369676e617475726500000000000000000000000000000000006000830152602082019050919050565b610c0181610f00565b82525050565b610c18610c1382610f00565b610f9d565b82525050565b610c2781610f0a565b82525050565b6000610c398286610abf565b601482019150610c498285610abf565b601482019150610c598284610c07565b602082019150819050949350505050565b6000610c7582610b38565b9150610c818284610af4565b60208201915081905092915050565b6000602082019050610ca56000830184610ab0565b92915050565b600060c082019050610cc0600083018a610ab0565b610ccd6020830189610ab0565b610cda6040830188610bf8565b610ce76060830187610bf8565b610cf46080830186610bf8565b81810360a0830152610d07818486610b0b565b905098975050505050505050565b6000602082019050610d2a6000830184610ad6565b92915050565b6000608082019050610d456000830187610ae5565b610d526020830186610c1e565b610d5f6040830185610ae5565b610d6c6060830184610ae5565b95945050505050565b60006020820190508181036000830152610d8e81610b78565b9050919050565b60006020820190508181036000830152610dae81610bb8565b9050919050565b6000602082019050610dca6000830184610bf8565b92915050565b600082825260208201905092915050565b600082825260208201905092915050565b600081905092915050565b6000610e0882610f00565b9150610e1383610f00565b9250827fffffffffffffffffffffffffffffffffffffffffffffffffffffffffffffffff03821115610e4857610e47610fa7565b5b828201905092915050565b6000610e5e82610f00565b9150610e6983610f00565b925082610e7957610e78610fd6565b5b828204905092915050565b6000610e8f82610f00565b9150610e9a83610f00565b925082821015610ead57610eac610fa7565b5b828203905092915050565b6000610ec382610ee0565b9050919050565b60008115159050919050565b6000819050919050565b600073ffffffffffffffffffffffffffffffffffffffff82169050919050565b6000819050919050565b600060ff82169050919050565b82818337600083830152505050565b6000610f3182610f00565b91507fffffffffffffffffffffffffffffffffffffffffffffffffffffffffffffffff821415610f6457610f63610fa7565b5b600182019050919050565b6000610f7a82610f8b565b9050919050565b6000819050919050565b6000610f9682611016565b9050919050565b6000819050919050565b7f4e487b7100000000000000000000000000000000000000000000000000000000600052601160045260246000fd5b7f4e487b7100000000000000000000000000000000000000000000000000000000600052601260045260246000fd5b6000601f19601f8301169050919050565b60008160601b9050919050565b61102c81610eb8565b811461103757600080fd5b50565b61104381610f00565b811461104e57600080fd5b5056fea2646970667358221220c6c971d3d3cecdc2eed405d3debaceac7fc719fa0907d1ef9bf7c68d7eb416ad64736f6c63430008000033",
  "linkReferences": {},
  "deployedLinkReferences": {}
}